{
  "_format": "hh-sol-artifact-1",
  "contractName": "Presale",
  "sourceName": "contracts/Presale.sol",
  "abi": [
    {
      "inputs": [
        {
          "internalType": "address",
          "name": "token",
          "type": "address"
        },
        {
          "internalType": "address payable",
          "name": "TEAM_ADDRESS",
          "type": "address"
        },
        {
          "internalType": "address payable",
          "name": "TREASURY_ADDRESS",
          "type": "address"
        },
        {
          "internalType": "address payable",
          "name": "LIQUIDITY_ADDRESS",
          "type": "address"
        }
      ],
      "stateMutability": "nonpayable",
      "type": "constructor"
    },
    {
      "inputs": [
        {
          "internalType": "address",
          "name": "owner",
          "type": "address"
        }
      ],
      "name": "OwnableInvalidOwner",
      "type": "error"
    },
    {
      "inputs": [
        {
          "internalType": "address",
          "name": "account",
          "type": "address"
        }
      ],
      "name": "OwnableUnauthorizedAccount",
      "type": "error"
    },
    {
      "anonymous": false,
      "inputs": [
        {
          "indexed": true,
          "internalType": "address",
          "name": "previousOwner",
          "type": "address"
        },
        {
          "indexed": true,
          "internalType": "address",
          "name": "newOwner",
          "type": "address"
        }
      ],
      "name": "OwnershipTransferred",
      "type": "event"
    },
    {
      "inputs": [],
      "name": "_presaleActive",
      "outputs": [
        {
          "internalType": "bool",
          "name": "",
          "type": "bool"
        }
      ],
      "stateMutability": "view",
      "type": "function"
    },
    {
      "inputs": [],
      "name": "_token",
      "outputs": [
        {
          "internalType": "address",
          "name": "",
          "type": "address"
        }
      ],
      "stateMutability": "view",
      "type": "function"
    },
    {
      "inputs": [],
      "name": "claimPresalerTokens",
      "outputs": [],
      "stateMutability": "nonpayable",
      "type": "function"
    },
    {
      "inputs": [
        {
          "internalType": "address",
          "name": "account",
          "type": "address"
        }
      ],
      "name": "contributionOf",
      "outputs": [
        {
          "internalType": "uint256",
          "name": "",
          "type": "uint256"
        }
      ],
      "stateMutability": "view",
      "type": "function"
    },
    {
      "inputs": [],
      "name": "manualFinishPresale",
      "outputs": [],
      "stateMutability": "nonpayable",
      "type": "function"
    },
    {
      "inputs": [],
      "name": "owner",
      "outputs": [
        {
          "internalType": "address",
          "name": "",
          "type": "address"
        }
      ],
      "stateMutability": "view",
      "type": "function"
    },
    {
      "inputs": [],
      "name": "renounceOwnership",
      "outputs": [],
      "stateMutability": "nonpayable",
      "type": "function"
    },
    {
      "inputs": [],
      "name": "totalContributions",
      "outputs": [
        {
          "internalType": "uint256",
          "name": "",
          "type": "uint256"
        }
      ],
      "stateMutability": "view",
      "type": "function"
    },
    {
      "inputs": [
        {
          "internalType": "address",
          "name": "newOwner",
          "type": "address"
        }
      ],
      "name": "transferOwnership",
      "outputs": [],
      "stateMutability": "nonpayable",
      "type": "function"
    },
    {
      "inputs": [
        {
          "internalType": "address",
          "name": "account",
          "type": "address"
        }
      ],
      "name": "walletOf",
      "outputs": [
        {
          "internalType": "contract VestingWallet",
          "name": "",
          "type": "address"
        }
      ],
      "stateMutability": "view",
      "type": "function"
    },
    {
      "stateMutability": "payable",
      "type": "receive"
    }
  ],
  "bytecode": "0x60e06040523480156200001157600080fd5b5060405162003fd038038062003fd0833981810160405281019062000037919062000334565b33600073ffffffffffffffffffffffffffffffffffffffff168173ffffffffffffffffffffffffffffffffffffffff1603620000ad5760006040517f1e4fbdf7000000000000000000000000000000000000000000000000000000008152600401620000a49190620003b7565b60405180910390fd5b620000be81620001c160201b60201c565b508273ffffffffffffffffffffffffffffffffffffffff1660808173ffffffffffffffffffffffffffffffffffffffff16815250508173ffffffffffffffffffffffffffffffffffffffff1660a08173ffffffffffffffffffffffffffffffffffffffff16815250508073ffffffffffffffffffffffffffffffffffffffff1660c08173ffffffffffffffffffffffffffffffffffffffff168152505083600160006101000a81548173ffffffffffffffffffffffffffffffffffffffff021916908373ffffffffffffffffffffffffffffffffffffffff1602179055506001600060146101000a81548160ff02191690831515021790555050505050620003d4565b60008060009054906101000a900473ffffffffffffffffffffffffffffffffffffffff169050816000806101000a81548173ffffffffffffffffffffffffffffffffffffffff021916908373ffffffffffffffffffffffffffffffffffffffff1602179055508173ffffffffffffffffffffffffffffffffffffffff168173ffffffffffffffffffffffffffffffffffffffff167f8be0079c531659141344cd1fd0a4f28419497f9722a3daafe3b4186f6b6457e060405160405180910390a35050565b600080fd5b600073ffffffffffffffffffffffffffffffffffffffff82169050919050565b6000620002b7826200028a565b9050919050565b620002c981620002aa565b8114620002d557600080fd5b50565b600081519050620002e981620002be565b92915050565b6000620002fc826200028a565b9050919050565b6200030e81620002ef565b81146200031a57600080fd5b50565b6000815190506200032e8162000303565b92915050565b6000806000806080858703121562000351576200035062000285565b5b60006200036187828801620002d8565b945050602062000374878288016200031d565b935050604062000387878288016200031d565b92505060606200039a878288016200031d565b91505092959194509250565b620003b181620002aa565b82525050565b6000602082019050620003ce6000830184620003a6565b92915050565b60805160a05160c051613bb0620004206000396000611ace015260008181610fdb015281816110cc015261120d0152600081816110070152818161106a015261115a0152613bb06000f3fe608060405260043610620000a35760003560e01c80638869eab511620000615780638869eab5146200028f5780638da5cb5b14620002a9578063d7805ece14620002d9578063ecd0c0c3146200031d578063f2fde38b146200034d57620001b2565b80631982640c14620001b7578063298c9a6214620001fb57806337c0892314620002155780636b0a11761462000245578063715018a6146200027557620001b2565b36620001b257600060149054906101000a900460ff16620000fb576040517f08c379a0000000000000000000000000000000000000000000000000000000008152600401620000f29062001c34565b60405180910390fd5b34600260003373ffffffffffffffffffffffffffffffffffffffff1673ffffffffffffffffffffffffffffffffffffffff16815260200190815260200160002060008282546200014c919062001c8f565b92505081905550346004600082825462000167919062001c8f565b92505081905550620001b06040518060400160405280600b81526020017f436f6e747269627574656400000000000000000000000000000000000000000081525033346200037b565b005b600080fd5b348015620001c457600080fd5b50620001e36004803603810190620001dd919062001d34565b6200041e565b604051620001f2919062001dd1565b60405180910390f35b3480156200020857600080fd5b506200021362000487565b005b3480156200022257600080fd5b506200022d62000907565b6040516200023c919062001dff565b60405180910390f35b3480156200025257600080fd5b506200025d62000911565b6040516200026c919062001e39565b60405180910390f35b3480156200028257600080fd5b506200028d62000924565b005b3480156200029c57600080fd5b50620002a76200093c565b005b348015620002b657600080fd5b50620002c162000952565b604051620002d0919062001e67565b60405180910390f35b348015620002e657600080fd5b50620003056004803603810190620002ff919062001d34565b6200097b565b60405162000314919062001dff565b60405180910390f35b3480156200032a57600080fd5b5062000335620009c4565b60405162000344919062001e67565b60405180910390f35b3480156200035a57600080fd5b5062000379600480360381019062000373919062001d34565b620009ea565b005b62000419838383604051602401620003969392919062001f0d565b6040516020818303038152906040527f0d26b925000000000000000000000000000000000000000000000000000000007bffffffffffffffffffffffffffffffffffffffffffffffffffffffff19166020820180517bffffffffffffffffffffffffffffffffffffffffffffffffffffffff838183161783525050505062000a77565b505050565b6000600360008373ffffffffffffffffffffffffffffffffffffffff1673ffffffffffffffffffffffffffffffffffffffff16815260200190815260200160002060009054906101000a900473ffffffffffffffffffffffffffffffffffffffff169050919050565b600060149054906101000a900460ff1615620004da576040517f08c379a0000000000000000000000000000000000000000000000000000000008152600401620004d19062001fa1565b60405180910390fd5b600060026000620004ea62000a95565b73ffffffffffffffffffffffffffffffffffffffff1673ffffffffffffffffffffffffffffffffffffffff168152602001908152602001600020549050600081116200056d576040517f08c379a0000000000000000000000000000000000000000000000000000000008152600401620005649062002013565b60405180910390fd5b6000600260006200057d62000a95565b73ffffffffffffffffffffffffffffffffffffffff1673ffffffffffffffffffffffffffffffffffffffff168152602001908152602001600020819055506000600454670de0b6b3a764000083620005d6919062002035565b620005e29190620020af565b90506000670de0b6b3a764000082600554620005ff919062002035565b6200060b9190620020af565b90506200064660405180606001604052806021815260200162003add6021913984655af3107a400085620006409190620020af565b62000a9d565b60006200065262000a95565b600860009054906101000a900467ffffffffffffffff16610e106040516200067a9062001bb9565b62000688939291906200210c565b604051809103906000f080158015620006a5573d6000803e3d6000fd5b5090508060036000620006b762000a95565b73ffffffffffffffffffffffffffffffffffffffff1673ffffffffffffffffffffffffffffffffffffffff16815260200190815260200160002060006101000a81548173ffffffffffffffffffffffffffffffffffffffff021916908373ffffffffffffffffffffffffffffffffffffffff160217905550600160009054906101000a900473ffffffffffffffffffffffffffffffffffffffff1673ffffffffffffffffffffffffffffffffffffffff1663a9059cbb6200077762000a95565b846040518363ffffffff1660e01b81526004016200079792919062002149565b6020604051808303816000875af1158015620007b7573d6000803e3d6000fd5b505050506040513d601f19601f82011682018060405250810190620007dd9190620021a7565b50620008206040518060400160405280600f81526020017f53656e7420746f2077616c6c65743a0000000000000000000000000000000000815250838362000b40565b620009016040518060400160405280601781526020017f52656d61696e696e6720746f6b656e2062616c616e6365000000000000000000815250600160009054906101000a900473ffffffffffffffffffffffffffffffffffffffff1673ffffffffffffffffffffffffffffffffffffffff166370a08231306040518263ffffffff1660e01b8152600401620008b7919062001e67565b602060405180830381865afa158015620008d5573d6000803e3d6000fd5b505050506040513d601f19601f82011682018060405250810190620008fb91906200220a565b62000be3565b50505050565b6000600454905090565b600060149054906101000a900460ff1681565b6200092e62000c83565b6200093a600062000d13565b565b6200094662000c83565b6200095062000dd7565b565b60008060009054906101000a900473ffffffffffffffffffffffffffffffffffffffff16905090565b6000600260008373ffffffffffffffffffffffffffffffffffffffff1673ffffffffffffffffffffffffffffffffffffffff168152602001908152602001600020549050919050565b600160009054906101000a900473ffffffffffffffffffffffffffffffffffffffff1681565b620009f462000c83565b600073ffffffffffffffffffffffffffffffffffffffff168173ffffffffffffffffffffffffffffffffffffffff160362000a695760006040517f1e4fbdf700000000000000000000000000000000000000000000000000000000815260040162000a60919062001e67565b60405180910390fd5b62000a748162000d13565b50565b62000a928162000a8a6200149c620014bd565b63ffffffff16565b50565b600033905090565b62000b3b83838360405160240162000ab8939291906200223c565b6040516020818303038152906040527fca47c4eb000000000000000000000000000000000000000000000000000000007bffffffffffffffffffffffffffffffffffffffffffffffffffffffff19166020820180517bffffffffffffffffffffffffffffffffffffffffffffffffffffffff838183161783525050505062000a77565b505050565b62000bde83838360405160240162000b5b9392919062002280565b6040516020818303038152906040527f1c7ec448000000000000000000000000000000000000000000000000000000007bffffffffffffffffffffffffffffffffffffffffffffffffffffffff19166020820180517bffffffffffffffffffffffffffffffffffffffffffffffffffffffff838183161783525050505062000a77565b505050565b62000c7f828260405160240162000bfc929190620022c4565b6040516020818303038152906040527fb60e72cc000000000000000000000000000000000000000000000000000000007bffffffffffffffffffffffffffffffffffffffffffffffffffffffff19166020820180517bffffffffffffffffffffffffffffffffffffffffffffffffffffffff838183161783525050505062000a77565b5050565b62000c8d62000a95565b73ffffffffffffffffffffffffffffffffffffffff1662000cad62000952565b73ffffffffffffffffffffffffffffffffffffffff161462000d115762000cd362000a95565b6040517f118cdaa700000000000000000000000000000000000000000000000000000000815260040162000d08919062001e67565b60405180910390fd5b565b60008060009054906101000a900473ffffffffffffffffffffffffffffffffffffffff169050816000806101000a81548173ffffffffffffffffffffffffffffffffffffffff021916908373ffffffffffffffffffffffffffffffffffffffff1602179055508173ffffffffffffffffffffffffffffffffffffffff168173ffffffffffffffffffffffffffffffffffffffff167f8be0079c531659141344cd1fd0a4f28419497f9722a3daafe3b4186f6b6457e060405160405180910390a35050565b600060149054906101000a900460ff1662000df157600080fd5b60008060146101000a81548160ff0219169083151502179055506000600454905060006b033b2e3c9fd0803ce8000000905062000e636040518060400160405280600e81526020017f50726573616c6520656e64696e67000000000000000000000000000000000000815250620014c9565b62000ea76040518060400160405280600f81526020017f46756e64696e672062616c616e636500000000000000000000000000000000008152506004544762000a9d565b6000606460328362000eba919062002035565b62000ec69190620020af565b90506000606460058462000edb919062002035565b62000ee79190620020af565b90506000606460058562000efc919062002035565b62000f089190620020af565b90506000606460058762000f1d919062002035565b62000f299190620020af565b90506000606460058862000f3e919062002035565b62000f4a9190620020af565b905060008484878962000f5e9190620022f8565b62000f6a9190620022f8565b62000f769190620022f8565b9050600083838a62000f899190620022f8565b62000f959190620022f8565b905086600581905550816006819055508060078190555042600860006101000a81548167ffffffffffffffff021916908367ffffffffffffffff160217905550620010017f00000000000000000000000000000000000000000000000000000000000000008562001566565b6200102d7f00000000000000000000000000000000000000000000000000000000000000008462001566565b6200108f6040518060400160405280600c81526020017f53656e7420746f207465616d0000000000000000000000000000000000000000815250847f000000000000000000000000000000000000000000000000000000000000000062000b40565b620010f16040518060400160405280601081526020017f53656e7420746f20747265617375727900000000000000000000000000000000815250857f000000000000000000000000000000000000000000000000000000000000000062000b40565b6200111a60405180606001604052806025815260200162003b5660259139600454478462001621565b600160009054906101000a900473ffffffffffffffffffffffffffffffffffffffff1673ffffffffffffffffffffffffffffffffffffffff166340c10f197f0000000000000000000000000000000000000000000000000000000000000000876040518363ffffffff1660e01b8152600401620011999291906200236c565b600060405180830381600087803b158015620011b457600080fd5b505af1158015620011c9573d6000803e3d6000fd5b50505050600160009054906101000a900473ffffffffffffffffffffffffffffffffffffffff1673ffffffffffffffffffffffffffffffffffffffff166340c10f197f0000000000000000000000000000000000000000000000000000000000000000886040518363ffffffff1660e01b81526004016200124c9291906200236c565b600060405180830381600087803b1580156200126757600080fd5b505af11580156200127c573d6000803e3d6000fd5b50505050600160009054906101000a900473ffffffffffffffffffffffffffffffffffffffff1673ffffffffffffffffffffffffffffffffffffffff166340c10f1930896040518363ffffffff1660e01b8152600401620012df92919062002149565b600060405180830381600087803b158015620012fa57600080fd5b505af11580156200130f573d6000803e3d6000fd5b50505050600160009054906101000a900473ffffffffffffffffffffffffffffffffffffffff1673ffffffffffffffffffffffffffffffffffffffff166340c10f1930846040518363ffffffff1660e01b81526004016200137292919062002149565b600060405180830381600087803b1580156200138d57600080fd5b505af1158015620013a2573d6000803e3d6000fd5b50505050620014876040518060400160405280600f81526020017f546f6b656e732062616c616e63653a0000000000000000000000000000000000815250600160009054906101000a900473ffffffffffffffffffffffffffffffffffffffff1673ffffffffffffffffffffffffffffffffffffffff166370a08231306040518263ffffffff1660e01b81526004016200143d919062001e67565b602060405180830381865afa1580156200145b573d6000803e3d6000fd5b505050506040513d601f19601f820116820180604052508101906200148191906200220a565b62000be3565b62001491620016c7565b505050505050505050565b60006a636f6e736f6c652e6c6f679050600080835160208501845afa505050565b62001bc7819050919050565b6200156381604051602401620014e0919062002399565b6040516020818303038152906040527f41304fac000000000000000000000000000000000000000000000000000000007bffffffffffffffffffffffffffffffffffffffffffffffffffffffff19166020820180517bffffffffffffffffffffffffffffffffffffffffffffffffffffffff838183161783525050505062000a77565b50565b6000808373ffffffffffffffffffffffffffffffffffffffff16836040516200158f90620023f2565b60006040518083038185875af1925050503d8060008114620015ce576040519150601f19603f3d011682016040523d82523d6000602084013e620015d3565b606091505b5091509150816200161b576040517f08c379a0000000000000000000000000000000000000000000000000000000008152600401620016129062002459565b60405180910390fd5b50505050565b620016c1848484846040516024016200163e94939291906200247b565b6040516020818303038152906040527fa7a87853000000000000000000000000000000000000000000000000000000007bffffffffffffffffffffffffffffffffffffffffffffffffffffffff19166020820180517bffffffffffffffffffffffffffffffffffffffffffffffffffffffff838183161783525050505062000a77565b50505050565b6000734752ba5dbc23f44d87826276bf6fd6b1c372ad2473ffffffffffffffffffffffffffffffffffffffff1663ad5c46486040518163ffffffff1660e01b8152600401602060405180830381865afa15801562001729573d6000803e3d6000fd5b505050506040513d601f19601f820116820180604052508101906200174f9190620024e6565b90506000738909dc15e40173ff4699343b6eb8132c65e18ec673ffffffffffffffffffffffffffffffffffffffff1663e6a4390530846040518363ffffffff1660e01b8152600401620017a492919062002518565b602060405180830381865afa158015620017c2573d6000803e3d6000fd5b505050506040513d601f19601f82011682018060405250810190620017e89190620024e6565b9050600073ffffffffffffffffffffffffffffffffffffffff168173ffffffffffffffffffffffffffffffffffffffff1603620018b957738909dc15e40173ff4699343b6eb8132c65e18ec673ffffffffffffffffffffffffffffffffffffffff1663c9c6539630846040518363ffffffff1660e01b81526004016200187092919062002518565b6020604051808303816000875af115801562001890573d6000803e3d6000fd5b505050506040513d601f19601f82011682018060405250810190620018b69190620024e6565b90505b738909dc15e40173ff4699343b6eb8132c65e18ec673ffffffffffffffffffffffffffffffffffffffff1663e6a4390530846040518363ffffffff1660e01b81526004016200190a92919062002518565b602060405180830381865afa15801562001928573d6000803e3d6000fd5b505050506040513d601f19601f820116820180604052508101906200194e9190620024e6565b90506000734752ba5dbc23f44d87826276bf6fd6b1c372ad2490506000600160009054906101000a900473ffffffffffffffffffffffffffffffffffffffff1690508073ffffffffffffffffffffffffffffffffffffffff1663095ea7b3734752ba5dbc23f44d87826276bf6fd6b1c372ad247fffffffffffffffffffffffffffffffffffffffffffffffffffffffffffffffff6040518363ffffffff1660e01b815260040162001a0192919062002149565b6020604051808303816000875af115801562001a21573d6000803e3d6000fd5b505050506040513d601f19601f8201168201806040525081019062001a479190620021a7565b5062001a706040518060600160405280602d815260200162003afe602d91396007544762000a9d565b62001a976040518060600160405280602b815260200162003b2b602b913960065462000be3565b4760078190555060008060008473ffffffffffffffffffffffffffffffffffffffff1663f305d719600754866006546006546007547f0000000000000000000000000000000000000000000000000000000000000000620151804262001afe919062001c8f565b6040518863ffffffff1660e01b815260040162001b219695949392919062002545565b60606040518083038185885af115801562001b40573d6000803e3d6000fd5b50505050506040513d601f19601f8201168201806040525081019062001b679190620025b2565b92509250925062001bb06040518060400160405280600f81526020017f4164646564206c6971756964697479000000000000000000000000000000000081525084848462001621565b50505050505050565b61149f806200263e83390190565b62001bd16200260e565b565b600082825260208201905092915050565b7f4e6f742061637469766500000000000000000000000000000000000000000000600082015250565b600062001c1c600a8362001bd3565b915062001c298262001be4565b602082019050919050565b6000602082019050818103600083015262001c4f8162001c0d565b9050919050565b6000819050919050565b7f4e487b7100000000000000000000000000000000000000000000000000000000600052601160045260246000fd5b600062001c9c8262001c56565b915062001ca98362001c56565b925082820190508082111562001cc45762001cc362001c60565b5b92915050565b600080fd5b600073ffffffffffffffffffffffffffffffffffffffff82169050919050565b600062001cfc8262001ccf565b9050919050565b62001d0e8162001cef565b811462001d1a57600080fd5b50565b60008135905062001d2e8162001d03565b92915050565b60006020828403121562001d4d5762001d4c62001cca565b5b600062001d5d8482850162001d1d565b91505092915050565b6000819050919050565b600062001d9162001d8b62001d858462001ccf565b62001d66565b62001ccf565b9050919050565b600062001da58262001d70565b9050919050565b600062001db98262001d98565b9050919050565b62001dcb8162001dac565b82525050565b600060208201905062001de8600083018462001dc0565b92915050565b62001df98162001c56565b82525050565b600060208201905062001e16600083018462001dee565b92915050565b60008115159050919050565b62001e338162001e1c565b82525050565b600060208201905062001e50600083018462001e28565b92915050565b62001e618162001cef565b82525050565b600060208201905062001e7e600083018462001e56565b92915050565b600081519050919050565b60005b8381101562001eaf57808201518184015260208101905062001e92565b60008484015250505050565b6000601f19601f8301169050919050565b600062001ed98262001e84565b62001ee5818562001bd3565b935062001ef781856020860162001e8f565b62001f028162001ebb565b840191505092915050565b6000606082019050818103600083015262001f29818662001ecc565b905062001f3a602083018562001e56565b62001f49604083018462001dee565b949350505050565b7f43616e6e6f7420636c61696d206e6f7700000000000000000000000000000000600082015250565b600062001f8960108362001bd3565b915062001f968262001f51565b602082019050919050565b6000602082019050818103600083015262001fbc8162001f7a565b9050919050565b7f4e6f7468696e6720746f20636c61696d00000000000000000000000000000000600082015250565b600062001ffb60108362001bd3565b9150620020088262001fc3565b602082019050919050565b600060208201905081810360008301526200202e8162001fec565b9050919050565b6000620020428262001c56565b91506200204f8362001c56565b92508282026200205f8162001c56565b9150828204841483151762002079576200207862001c60565b5b5092915050565b7f4e487b7100000000000000000000000000000000000000000000000000000000600052601260045260246000fd5b6000620020bc8262001c56565b9150620020c98362001c56565b925082620020dc57620020db62002080565b5b828204905092915050565b600067ffffffffffffffff82169050919050565b6200210681620020e7565b82525050565b600060608201905062002123600083018662001e56565b620021326020830185620020fb565b620021416040830184620020fb565b949350505050565b600060408201905062002160600083018562001e56565b6200216f602083018462001dee565b9392505050565b620021818162001e1c565b81146200218d57600080fd5b50565b600081519050620021a18162002176565b92915050565b600060208284031215620021c057620021bf62001cca565b5b6000620021d08482850162002190565b91505092915050565b620021e48162001c56565b8114620021f057600080fd5b50565b6000815190506200220481620021d9565b92915050565b60006020828403121562002223576200222262001cca565b5b60006200223384828501620021f3565b91505092915050565b6000606082019050818103600083015262002258818662001ecc565b905062002269602083018562001dee565b62002278604083018462001dee565b949350505050565b600060608201905081810360008301526200229c818662001ecc565b9050620022ad602083018562001dee565b620022bc604083018462001e56565b949350505050565b60006040820190508181036000830152620022e0818562001ecc565b9050620022f1602083018462001dee565b9392505050565b6000620023058262001c56565b9150620023128362001c56565b92508282039050818111156200232d576200232c62001c60565b5b92915050565b6000620023408262001d70565b9050919050565b6000620023548262002333565b9050919050565b620023668162002347565b82525050565b60006040820190506200238360008301856200235b565b62002392602083018462001dee565b9392505050565b60006020820190508181036000830152620023b5818462001ecc565b905092915050565b600081905092915050565b50565b6000620023da600083620023bd565b9150620023e782620023c8565b600082019050919050565b6000620023ff82620023cb565b9150819050919050565b7f4661696c656420746f2073656e64204574686572000000000000000000000000600082015250565b60006200244160148362001bd3565b91506200244e8262002409565b602082019050919050565b60006020820190508181036000830152620024748162002432565b9050919050565b6000608082019050818103600083015262002497818762001ecc565b9050620024a8602083018662001dee565b620024b7604083018562001dee565b620024c6606083018462001dee565b95945050505050565b600081519050620024e08162001d03565b92915050565b600060208284031215620024ff57620024fe62001cca565b5b60006200250f84828501620024cf565b91505092915050565b60006040820190506200252f600083018562001e56565b6200253e602083018462001e56565b9392505050565b600060c0820190506200255c600083018962001e56565b6200256b602083018862001dee565b6200257a604083018762001dee565b62002589606083018662001dee565b62002598608083018562001e56565b620025a760a083018462001dee565b979650505050505050565b600080600060608486031215620025ce57620025cd62001cca565b5b6000620025de86828701620021f3565b9350506020620025f186828701620021f3565b92505060406200260486828701620021f3565b9150509250925092565b7f4e487b7100000000000000000000000000000000000000000000000000000000600052605160045260246000fdfe60c06040526040516200149f3803806200149f833981810160405281019062000029919062000265565b82600073ffffffffffffffffffffffffffffffffffffffff168173ffffffffffffffffffffffffffffffffffffffff16036200009f5760006040517f1e4fbdf7000000000000000000000000000000000000000000000000000000008152600401620000969190620002d2565b60405180910390fd5b620000b081620000f260201b60201c565b508167ffffffffffffffff1660808167ffffffffffffffff16815250508067ffffffffffffffff1660a08167ffffffffffffffff1681525050505050620002ef565b60008060009054906101000a900473ffffffffffffffffffffffffffffffffffffffff169050816000806101000a81548173ffffffffffffffffffffffffffffffffffffffff021916908373ffffffffffffffffffffffffffffffffffffffff1602179055508173ffffffffffffffffffffffffffffffffffffffff168173ffffffffffffffffffffffffffffffffffffffff167f8be0079c531659141344cd1fd0a4f28419497f9722a3daafe3b4186f6b6457e060405160405180910390a35050565b600080fd5b600073ffffffffffffffffffffffffffffffffffffffff82169050919050565b6000620001e882620001bb565b9050919050565b620001fa81620001db565b81146200020657600080fd5b50565b6000815190506200021a81620001ef565b92915050565b600067ffffffffffffffff82169050919050565b6200023f8162000220565b81146200024b57600080fd5b50565b6000815190506200025f8162000234565b92915050565b600080600060608486031215620002815762000280620001b6565b5b6000620002918682870162000209565b9350506020620002a4868287016200024e565b9250506040620002b7868287016200024e565b9150509250925092565b620002cc81620001db565b82525050565b6000602082019050620002e96000830184620002c1565b92915050565b60805160a05161118a62000315600039600061038c0152600061064b015261118a6000f3fe6080604052600436106100e15760003560e01c8063961325211161007f578063be9a655511610059578063be9a6555146102b9578063efbe1c1c146102e4578063f2fde38b1461030f578063fbccedae14610338576100e8565b806396132521146102145780639852595c1461023f578063a3f8eace1461027c576100e8565b8063715018a6116100bb578063715018a61461017e578063810ec23b1461019557806386d1a69f146101d25780638da5cb5b146101e9576100e8565b80630a17b06b146100ed5780630fb5a6b41461012a5780631916558714610155576100e8565b366100e857005b600080fd5b3480156100f957600080fd5b50610114600480360381019061010f9190610d1b565b610363565b6040516101219190610d61565b60405180910390f35b34801561013657600080fd5b5061013f610388565b60405161014c9190610d61565b60405180910390f35b34801561016157600080fd5b5061017c60048036038101906101779190610dda565b6103ba565b005b34801561018a57600080fd5b50610193610481565b005b3480156101a157600080fd5b506101bc60048036038101906101b79190610e07565b610495565b6040516101c99190610d61565b60405180910390f35b3480156101de57600080fd5b506101e7610535565b005b3480156101f557600080fd5b506101fe6105a5565b60405161020b9190610e56565b60405180910390f35b34801561022057600080fd5b506102296105ce565b6040516102369190610d61565b60405180910390f35b34801561024b57600080fd5b5061026660048036038101906102619190610dda565b6105d8565b6040516102739190610d61565b60405180910390f35b34801561028857600080fd5b506102a3600480360381019061029e9190610dda565b610621565b6040516102b09190610d61565b60405180910390f35b3480156102c557600080fd5b506102ce610647565b6040516102db9190610d61565b60405180910390f35b3480156102f057600080fd5b506102f9610679565b6040516103069190610d61565b60405180910390f35b34801561031b57600080fd5b5061033660048036038101906103319190610dda565b61069a565b005b34801561034457600080fd5b5061034d610720565b60405161035a9190610d61565b60405180910390f35b60006103816103706105ce565b4761037b9190610ea0565b83610742565b9050919050565b60007f000000000000000000000000000000000000000000000000000000000000000067ffffffffffffffff16905090565b60006103c582610621565b905080600260008473ffffffffffffffffffffffffffffffffffffffff1673ffffffffffffffffffffffffffffffffffffffff16815260200190815260200160002060008282546104169190610ea0565b925050819055508173ffffffffffffffffffffffffffffffffffffffff167fc0e523490dd523c33b1878c9eb14ff46991e3f5b2cd33710918618f2a39cba1b826040516104639190610d61565b60405180910390a261047d826104776105a5565b836107c9565b5050565b610489610848565b61049360006108cf565b565b600061052d6104a3846105d8565b8473ffffffffffffffffffffffffffffffffffffffff166370a08231306040518263ffffffff1660e01b81526004016104dc9190610e56565b602060405180830381865afa1580156104f9573d6000803e3d6000fd5b505050506040513d601f19601f8201168201806040525081019061051d9190610f00565b6105279190610ea0565b83610742565b905092915050565b600061053f610720565b905080600160008282546105539190610ea0565b925050819055507fda9d4e5f101b8b9b1c5b76d0c5a9f7923571acfc02376aa076b75a8c080c956b816040516105899190610d61565b60405180910390a16105a261059c6105a5565b82610993565b50565b60008060009054906101000a900473ffffffffffffffffffffffffffffffffffffffff16905090565b6000600154905090565b6000600260008373ffffffffffffffffffffffffffffffffffffffff1673ffffffffffffffffffffffffffffffffffffffff168152602001908152602001600020549050919050565b600061062c826105d8565b6106368342610495565b6106409190610f2d565b9050919050565b60007f000000000000000000000000000000000000000000000000000000000000000067ffffffffffffffff16905090565b6000610683610388565b61068b610647565b6106959190610ea0565b905090565b6106a2610848565b600073ffffffffffffffffffffffffffffffffffffffff168173ffffffffffffffffffffffffffffffffffffffff16036107145760006040517f1e4fbdf700000000000000000000000000000000000000000000000000000000815260040161070b9190610e56565b60405180910390fd5b61071d816108cf565b50565b600061072a6105ce565b61073342610363565b61073d9190610f2d565b905090565b600061074c610647565b8267ffffffffffffffff16101561076657600090506107c3565b61076e610679565b8267ffffffffffffffff1610610786578290506107c3565b61078e610388565b610796610647565b8367ffffffffffffffff166107ab9190610f2d565b846107b69190610f61565b6107c09190610fd2565b90505b92915050565b610843838473ffffffffffffffffffffffffffffffffffffffff1663a9059cbb85856040516024016107fc929190611003565b604051602081830303815290604052915060e01b6020820180517bffffffffffffffffffffffffffffffffffffffffffffffffffffffff8381831617835250505050610a80565b505050565b610850610b17565b73ffffffffffffffffffffffffffffffffffffffff1661086e6105a5565b73ffffffffffffffffffffffffffffffffffffffff16146108cd57610891610b17565b6040517f118cdaa70000000000000000000000000000000000000000000000000000000081526004016108c49190610e56565b60405180910390fd5b565b60008060009054906101000a900473ffffffffffffffffffffffffffffffffffffffff169050816000806101000a81548173ffffffffffffffffffffffffffffffffffffffff021916908373ffffffffffffffffffffffffffffffffffffffff1602179055508173ffffffffffffffffffffffffffffffffffffffff168173ffffffffffffffffffffffffffffffffffffffff167f8be0079c531659141344cd1fd0a4f28419497f9722a3daafe3b4186f6b6457e060405160405180910390a35050565b804710156109d857306040517fcd7860590000000000000000000000000000000000000000000000000000000081526004016109cf9190610e56565b60405180910390fd5b60008273ffffffffffffffffffffffffffffffffffffffff16826040516109fe9061105d565b60006040518083038185875af1925050503d8060008114610a3b576040519150601f19603f3d011682016040523d82523d6000602084013e610a40565b606091505b5050905080610a7b576040517f1425ea4200000000000000000000000000000000000000000000000000000000815260040160405180910390fd5b505050565b6000610aab828473ffffffffffffffffffffffffffffffffffffffff16610b1f90919063ffffffff16565b90506000815114158015610ad0575080806020019051810190610ace91906110aa565b155b15610b1257826040517f5274afe7000000000000000000000000000000000000000000000000000000008152600401610b099190610e56565b60405180910390fd5b505050565b600033905090565b6060610b2d83836000610b35565b905092915050565b606081471015610b7c57306040517fcd786059000000000000000000000000000000000000000000000000000000008152600401610b739190610e56565b60405180910390fd5b6000808573ffffffffffffffffffffffffffffffffffffffff168486604051610ba5919061113d565b60006040518083038185875af1925050503d8060008114610be2576040519150601f19603f3d011682016040523d82523d6000602084013e610be7565b606091505b5091509150610bf7868383610c02565b925050509392505050565b606082610c1757610c1282610c91565b610c89565b60008251148015610c3f575060008473ffffffffffffffffffffffffffffffffffffffff163b145b15610c8157836040517f9996b315000000000000000000000000000000000000000000000000000000008152600401610c789190610e56565b60405180910390fd5b819050610c8a565b5b9392505050565b600081511115610ca45780518082602001fd5b6040517f1425ea4200000000000000000000000000000000000000000000000000000000815260040160405180910390fd5b600080fd5b600067ffffffffffffffff82169050919050565b610cf881610cdb565b8114610d0357600080fd5b50565b600081359050610d1581610cef565b92915050565b600060208284031215610d3157610d30610cd6565b5b6000610d3f84828501610d06565b91505092915050565b6000819050919050565b610d5b81610d48565b82525050565b6000602082019050610d766000830184610d52565b92915050565b600073ffffffffffffffffffffffffffffffffffffffff82169050919050565b6000610da782610d7c565b9050919050565b610db781610d9c565b8114610dc257600080fd5b50565b600081359050610dd481610dae565b92915050565b600060208284031215610df057610def610cd6565b5b6000610dfe84828501610dc5565b91505092915050565b60008060408385031215610e1e57610e1d610cd6565b5b6000610e2c85828601610dc5565b9250506020610e3d85828601610d06565b9150509250929050565b610e5081610d9c565b82525050565b6000602082019050610e6b6000830184610e47565b92915050565b7f4e487b7100000000000000000000000000000000000000000000000000000000600052601160045260246000fd5b6000610eab82610d48565b9150610eb683610d48565b9250828201905080821115610ece57610ecd610e71565b5b92915050565b610edd81610d48565b8114610ee857600080fd5b50565b600081519050610efa81610ed4565b92915050565b600060208284031215610f1657610f15610cd6565b5b6000610f2484828501610eeb565b91505092915050565b6000610f3882610d48565b9150610f4383610d48565b9250828203905081811115610f5b57610f5a610e71565b5b92915050565b6000610f6c82610d48565b9150610f7783610d48565b9250828202610f8581610d48565b91508282048414831517610f9c57610f9b610e71565b5b5092915050565b7f4e487b7100000000000000000000000000000000000000000000000000000000600052601260045260246000fd5b6000610fdd82610d48565b9150610fe883610d48565b925082610ff857610ff7610fa3565b5b828204905092915050565b60006040820190506110186000830185610e47565b6110256020830184610d52565b9392505050565b600081905092915050565b50565b600061104760008361102c565b915061105282611037565b600082019050919050565b60006110688261103a565b9150819050919050565b60008115159050919050565b61108781611072565b811461109257600080fd5b50565b6000815190506110a48161107e565b92915050565b6000602082840312156110c0576110bf610cd6565b5b60006110ce84828501611095565b91505092915050565b600081519050919050565b60005b838110156111005780820151818401526020810190506110e5565b60008484015250505050565b6000611117826110d7565b611121818561102c565b93506111318185602086016110e2565b80840191505092915050565b6000611149828461110c565b91508190509291505056fea26469706673582212202bb56f1f9348c000eea4ff0f22e80af2c473cfba2642417c6b4a02bf5c1b54c564736f6c63430008180033436f6e747269627574696f6e207761732c202866756e642c207063745f6270732946696e616c20616464206f66206c69717569646974792073746167652c2066756e64696e6720616d6f756e743a46696e616c20616464206f66206c69717569646974792073746167652c20746f6b656e20616d6f756e743a46756e64696e672062616c616e63652072656d61696e696e672028707265762c206e6f7729a2646970667358221220cbf8a4f42694747c88400c8fd5d9cca9bba2979b4dc380f865cec61b4c3bfee364736f6c63430008180033",
  "linkReferences": {},
  "deployedLinkReferences": {}
}